:100000000C94630C0C94940C0C94940C0C94940C21
:100010000C94940C0C94940C0C94940C0C94940CE0
:100020000C94940C0C94940C0C94940C0C94940CD0
:100030000C94940C0C94940C0C94940C0C94940CC0
:100040000C94940C0C94940C0C94940C0C94940CB0
:100050000C94940C0C94940C0C94940C0C942E1002
:100060000C94940C0C943B860C9411860C94940C78
:100070000C94940C0C94940C0C94940C0C94940C80
:100080000C94940C0C94940C0C94940C0C94940C70
:100090000C94940C0C94940C0C94940C0C94632A73
:1000A0000C94940C0C94940C0C94940C0C94940C50
:1000B0000C94940C0C94940C0C94940C0C94940C40
:1000C0000C94940C0C94940C0C94940C0C94940C30
:1000D0000C94940C0C94940C0C94940C0C94940C20
:1000E0000C94940C0C947B0F0C94D41F0C94A80FBC
:1000F0000C94DB860C94E54B0C94710F0C94C78622
:100100000C94D44F0C94940F0C9448750C94BE5DD1
:100110000C94570F0C947B8B0C9403750C94EF7517
:100120000C94D1860C94F3860C94209F0C94C60FEB
:100130000C94AA5D0C94D11F0C94909F0C94AF5D0D
:100140000C94850F0C9496280C94E90C0C94CC4FCD
:100150000C9439750C9445A50C94083A0C942C0F0A
:100160000C94763A0C94F00C0C94E5860C94E04BCD
:100170000C94ED860C94EF4B0C949E0F0C94390F5D
:100180000C94B8860C94E39E0C946D0D0C94D04F97
:100190000C94F7860C94B95D0C946A750C94BF1F8F
:1001A0000C94E04F0C94735D0C94670F0C94C94B46
:1001B0000C94C70C0C94A6860C94A1860C94D64B78
:1001C0000C94B74F0C945C750C946C0D0C94430F0D
:1001D0000C94D84F0C945F0F0C94E9860C94D7863E
:1001E0000C94DF860C94C50C0C94D60C0C944D0F1B
:1001F0000C94EA4B0C94DC4F0C94B20F0C94C08618
:100200000C94BC860C94340F0C9487230C941D0D15
:100210000C94C40C0C94BC0F0C948D9F0C94A27580
:100220000C94698B0C94759F0C94C35D0C94C60C54
:100230000C94DB4B0C94CD860C94C4860C94B45D6A
:100240000C947A9A0C94FB9E507265737320746FB1
:100250002053656C65637400526F7461746520741B
:100260006F204368616E676500616E642072696724
:10027000687420746F2053656C65637400507265F8
:100280007373206C65667420746F204368616E67B9
:100290006500466C617368696E672066696C6520ED
:1002A00000566572696679696E672E2E2E0053615D
:1002B00076696E6720746F2000446F6E6500466932
:1002C0006C6520746F6F206269670043616E2774EC
:1002D000206F70656E2066696C650043616E2774DF
:1002E000206372656174652066696C650045727291
:1002F0006F723A200020627974657320006469642B
:10030000206E6F74207665726966790053442045CB
:1003100072726F7200507265737320427574746FDD
:100320006E2E2E2E00466C61736820726570726F9F
:100330000047616D652050726F636573736F722043
:1003400052414D00537566616D6920547572626F3C
:1003500000536174656C6C61766965772042532D3A
:1003600058005346204D656D6F7279204361737359
:100370006574746500534E45532F534643206361A3
:10038000727472696467650041626F7574004E69CA
:100390006E74656E646F20363420283356290053FE
:1003A00075706572204E696E74656E646F2F53466A
:1003B0004300313238204B42003634204B42003368
:1003C00032204B420038204B4200313238204279F3
:1003D00074650036342042797465003332204279E6
:1003E0007465004E6F2062756666657200466C61CA
:1003F00073682058706C6F72657220363400466CDA
:100400006173682047616D65736861726B00466C4B
:1004100061736820526570726F00436F6E74726F03
:100420006C6C65720047616D65204361727472691E
:1004300064676500313238204D42003634204D4229
:10044000003332204D42003136204D4200313220FF
:100450004D420038204D420034204D4200364D427E
:10046000204578524F4D203235364B205352414D66
:1004700000344D42204869524F4D2036344B2053B2
:1004800052414D00344D42204C6F524F4D20323579
:10049000364B205352414D005573652068656164A9
:1004A000657220696E666F0015030C03060FFD026E
:1004B000F502ED02DB02CB02BE02B902AE02A102DE
:1004C00092027D02690258024802202D3E2000421D
:1004D000616E6B733A20004D62697400202D3E20DE
:1004E0000053697A653A2000436F727265637469DC
:1004F0006E672073697A6500466F756E64004865A3
:10050000616465722043524333323A200043686588
:10051000636B73756D3A2000536561726368696E31
:10052000672064617461626173652E2E2E004368DA
:1005300065636B73756D3A2000204B420053617602
:10054000652053697A653A20002062616E6B7329D9
:1005500000202800204D4200204B4200524F4D20E9
:1005600053697A653A2000526F6D2053697A653A73
:1005700020005350432052414D20525443005350C9
:10058000432052414D2042415454004453503200C4
:100590004358340052414D2047426F790053525422
:1005A000432052414D204241545400534444312091
:1005B000424154540053444431005341312052418C
:1005C0004D2042415454005341312052414D00537B
:1005D000757065724658004453503120534156455A
:1005E00000445350312052414D0044535031005388
:1005F0004156450052414D004F4E4C5900494373FE
:100600003A20524F4D200046617374524F4D0053B3
:100610006C6F77524F4D00536C6F77524F4D0045C2
:10062000784869526F6D004C6F524F4D00486952C7
:100630004F4D00547970653A2000526576697369B0
:100640006F6E3A20005469746C653A20006F722016
:10065000706F7765726379636C65206966205341BA
:1006600031006D616E75616C20636F6E66696775D0
:10067000726174696F6E0050726573732062757475
:10068000746F6E20666F72006F72206D697373698C
:100690006E6700526F6D2068656164657220636FDC
:1006A0007272757074004552524F5200436C6F6302
:1006B0006B2047656E657261746F72206E6F742077
:1006C000666F756E64007503620351034403310362
:1006D0002503060F5631332E320032303234204695
:1006E0005720006769746875622E636F6D2F7361A0
:1006F0006E6E690043617274726964676520526549
:100700006164657200696E20436F6E6669672E686A
:100710002E00506C6561736520656E61626C6520AA
:100720006D6F64756C65009F038E038803060F2A46
:10073000005D00506C65617365207265736561745E
:1007400020636172747269646765004572617369E0
:100750006E672E2E2E0045726173696E672E2E2EE7
:1007600000436869702065726173652E2E2E004DFE
:100770006F7265207468616E200043616E2774207B
:100780006F70656E2066696C65006661696C656492
:10079000002062797465732000736563746F72530F
:1007A000697A65206E6F742073657400577269747E
:1007B000696E6720004D420046696C652073697A56
:1007C000653A200053656C656374207A3634206680
:1007D000696C6500C503BF03B903B203E303DB0320
:1007E000D303CA03417474656E74696F6E3A205501
:1007F000736520332E33562100526570726F20438B
:1008000061727472696467652E0054686973207739
:10081000696C6C20657261736520796F7572006D0B
:10082000616E75616C20636F6E66696700507265FA
:10083000737320627574746F6E20666F7200494422
:100840003A2000556E6B6E6F776E20666C61736830
:10085000726F6D00417474656E74696F6E3A2055E5
:10086000736520332E33562100526570726F20431A
:1008700061727472696467652E00546869732077C9
:10088000696C6C20657261736520796F7572004DBB
:1008900042002053697A653A200049443A200049D1
:1008A0006E74656C203531324D32394557004675CE
:1008B0006A69747375204D535035354C5635313255
:1008C0000046756A69747375204D535035354C5622
:1008D0003130305300496E74656C20343430304C04
:1008E000305A44513000207832004D6163726F6E8F
:1008F0006978204D5832394C5636343000535420E4
:100900004D323957313238474C005370616E73693C
:100910006F6E20533239474C3132384E00207832D6
:10092000005370616E73696F6E20533239474C32D9
:1009300035364E00556E6B6E6F776E20466C617368
:100940006820494400436865636B206361727420CA
:10095000636F6E6E656374696F6E002E2E2E00538A
:100960006176696E67200045726173696E672E2E2D
:100970002E004572617365206661696C6564004E86
:100980006F7420656D70747900426C616E6B636882
:1009900065636B2E2E2E0043616E2774206F706589
:1009A0006E2066696C65002062797465732000565C
:1009B0006572696669636174696F6E204661696C0E
:1009C0006564005475726E204361727420526561D3
:1009D000646572206F6666206E6F7700566572667A
:1009E000696564204F4B0057726974696E67200017
:1009F000204B420046696C652073697A653A200095
:100A000053656C656374207A36342066696C6500C2
:100A1000506F776572204F464620696620556E7389
:100A20007572652100417474656E74696F6E3A2049
:100A300055736520332E3356210047616D65736809
:100A400061726B20636172747269646765005468D7
:100A500069732077696C6C20657261736520796FAA
:100A6000757200556E6B6E6F776E20466C617368A1
:100A700020494400436865636B206361727420639E
:100A80006F6E6E656374696F6E00446F6E652E00E5
:100A90002E2E2E00536176696E67200045726173B9
:100AA000696E672E2E2E004572617365206661693E
:100AB0006C6564004E6F7420656D70747900426CD3
:100AC000616E6B636865636B2E2E2E0043616E272B
:100AD00074206F70656E2066696C650020627974A1
:100AE00065732000566572696669636174696F6E2B
:100AF000204661696C6564005475726E20436172B2
:100B00007420526561646572206F6666206E6F772F
:100B10000056657266696564204F4B0057726974B0
:100B2000696E672000204B420046696C652073693E
:100B30007A653A200053656C6563742058503634EA
:100B400020726F6D2066696C6500506F776572204A
:100B50004F464620696620556E73757265210041C7
:100B60007474656E74696F6E3A2055736520332E08
:100B70003356210058706C6F726572363420636191
:100B80007274726964676500546869732077696C70
:100B90006C20657261736520796F75720025041A87
:100BA000040E04FE03ED03060F436C6F636B2047D6
:100BB000656E657261746F72206E6F7420666F75FA
:100BC0006E6400436F6E74726F6C6C65722050615E
:100BD0006B206E6F7420666F756E6400436F6E7469
:100BE000726F6C6C6572206E6F7420666F756E64C8
:100BF0000044617461206C696E65204C4F57007031
:100C0000726F746F636F6C20435243206572726F12
:100C100072006E6F742064756D7065642064756514
:100C200020746F206100436F6E74726F6C6C65721C
:100C30002050616B20776173007265616420746974
:100C40006D656F7574006E6F742064756D7065648A
:100C50002064756520746F206100436F6E74726F3D
:100C60006C6C65722050616B2077617300706173EA
:100C7000736564006661696C656400436F6E7369D7
:100C80007374656E637920636865636B20002F322F
:100C900000546F433A20002F34202D200048445246
:100CA0003A20006E36342E747874206D697373693F
:100CB0006E6700536561726368696E672064617472
:100CC00061626173652E2E2E00580453044D044753
:100CD0000441043B043404436172747269646765BF
:100CE00020756E6B6E6F776E00435243313A200071
:100CF00053657269616C3A20005469746C653A20DE
:100D00000047414D4550414B204552524F52004300
:100D10005243313A20004E6F6E652F556E6B6E6FE9
:100D2000776E0031364B20454550524F4D00344BC5
:100D300020454550524F4D00464C415348005352B8
:100D4000414D005361766520547970653A2000204A
:100D50004D4200524F4D2053697A653A200052654A
:100D6000766973696F6E3A200053657269616C3AF7
:100D700020005469746C653A20002F005361766539
:100D80006420746F20005361766574797065204526
:100D900072726F7200466C61736872616D20756E5D
:100DA0006B6E6F776E002C200028636F6D7061741E
:100DB0002E204D5832394C31313031290054797060
:100DC000653A2032394C313130304B432D31354288
:100DD0003000547970653A204D4E36334638314DE7
:100DE000504E00547970653A204D5832394C3131AB
:100DF000303100547970653A204D5832394C3131D8
:100E0000303000536563746F722065726173652EB4
:100E10002E2E009804840471045D04060F53524181
:100E20004D2077726974696E672066696E697368B0
:100E300065640046696C6520646F65736E74206537
:100E4000786973740053656C6563742073726D20E8
:100E500066696C65002F2E2E2E0053617665642026
:100E6000746F200043616E2774206F70656E20667A
:100E7000696C6500526573657474696E672E2E2EF9
:100E8000005665726966696564204F4B0045525291
:100E90004F52003A20003078005B00464C415348E6
:100EA000005352414D0031364B20454550524F4D75
:100EB00000344B20454550524F4D004E6F6E65003B
:100EC000466F72636520536176657479706500576B
:100ED0007269746520436F6E74726F6C6C657250CA
:100EE000616B005265616420436F6E74726F6C6C4D
:100EF000657250616B005465737420436F6E747239
:100F00006F6C6C657200526573657400466F726336
:100F10006520636172742074797065005265667231
:100F20006573682043617274005465737420535272
:100F3000414D0057726974652053617665005265B2
:100F400061642053617665005265616420524F4DA3
:100F50000000000A0B02090C0D0E08070304010033
:100F60000000000000000000000000000000000081
:100F7000000000000000000000000000001211103E
:100F80000000000000000000000000000000000061
:100F900000000000000000323032342067697468BD
:100FA00075622E636F6D2F73616E6E69004361729F
:100FB00074726964676520526561646572002F2EE2
:100FC0002E2E005361766574797065204572726FBC
:100FD00072005361766574797065204572726F7224
:100FE000002F00536176656420746F20006E6F20BF
:100FF00064617461207265636569766564004E366C
:10100000342F534156452F25732F25640025732E09
:1010100065657000536176657479706520457272FC
:101020006F720057726974696E672E2E2E004572BA
:101030006173696E672E2E2E005361766574797028
:1010400065204572726F7200200042616E6B200055
:1010500057726974696E6720004641494C005361BC
:10106000766574797065204572726F720057726987
:1010700074696E672E2E2E005361766574797065E3
:10108000204572726F7200566572696679696E6783
:1010900020616761696E73742000BB0EB10EA60EED
:1010A000A10E9B0E536176652054797065204572C0
:1010B000726F7200454550524F4D207665726966D9
:1010C000696564204F4B0053656C656374206565EA
:1010D000702066696C65004F4B0053656C656374E6
:1010E00020666C612066696C65005352414D207624
:1010F00065726966696564204F4B0053656C656372
:1011000074207372612066696C6500536176657442
:10111000797065204572726F720052656164696E04
:101120006720454550524F4D2E2E2E00526561646A
:10113000696E6720464C4153482E2E2E0052656141
:1011400064696E67205352414D2E2E2E00480F3E8B
:101150000F330FC00E060F5072657373206120624B
:101160007574746F6E00432D526967687400432D67
:101170004C65667400432D446F776E00432D5570A7
:101180000052004C00442D526967687400442D4C95
:1011900065667400442D446F776E00442D557000D1
:1011A0005354415254005A00420041005361766941
:1011B0006E67204E36342F4D504B2F0020626C6FDF
:1011C000636B732000536176656420737563636598
:1011D000737366756C6C79002E2E2E0057726974CD
:1011E000696E6720005772697474656E2073756349
:1011F0006365737366756C6C790053656C656374B5
:10120000206D706B2066696C6500F60EE30ECF0EE4
:10121000060F44756D70696E67204869526F6D2EB8
:101220002E2E0044756D70696E6720535043373120
:101230003130204869526F6D0044756D70696E677A
:101240002053444431204869526F6D002F2E2E2EBA
:101250000044554D5020524F4D2031535400202D05
:101260003E204F4B00496E76616C6964204368658F
:10127000636B73756D0020213D2000436865636BCF
:1012800073756D2E2E2E2000526573657474696E11
:10129000672E2E2E00446F6573206E6F7420686178
:1012A0007665205352414D00526573746F726564C8
:1012B000204F4B007374617274207372616D2074DF
:1012C000657374696E6700507265737320616E791F
:1012D00020627574746F6E20746F00796F75722060
:1012E000736176652067616D65730054686973206A
:1012F00063616E206572617365005761726E696E1D
:10130000673A00446F6573206E6F7420686176657C
:10131000205352414D005665726966696564204FDD
:101320004B00446F6573206E6F7420686176652092
:101330005352414D00446F6573206E6F7420686195
:10134000766520524F4D00480F3E0F330F290F1C7A
:101350000F0C0F060F206E6F7420666F756E6400A1
:1013600046696C65200000000000963007772C610C
:101370000EEEBA51099919C46D078FF46A7035A53C
:1013800063E9A395649E3288DB0EA4B8DC791EE97C
:10139000D5E088D9D2972B4CB609BD7CB17E072DFC
:1013A000B8E7911DBF906410B71DF220B06A487174
:1013B000B9F3DE41BE847DD4DA1AEBE4DD6D51B5BC
:1013C000D4F4C785D38356986C13C0A86B647AF99C
:1013D00062FDECC9658A4F5C0114D96C0663633DFC
:1013E0000FFAF50D088DC8206E3B5E10694CE44184
:1013F00060D5727167A2D1E4033C47D4044BFD85EC
:101400000DD26BB50AA5FAA8B5356C98B242D6C90B
:10141000BBDB40F9BCACE36CD832755CDF45CF0D6B
:10142000D6DC593DD1ABAC30D9263A00DE518051E3
:10143000D7C81661D0BFB5F4B42123C4B35699956B
:10144000BACF0FA5BDB89EB802280888055FB2D9EB
:101450000CC624E90BB1877C6F2F114C6858AB1D6B
:1014600061C13D2D66B69041DC760671DB01BC2082
:10147000D2982A10D5EF8985B1711FB5B606A5E4BB
:10148000BF9F33D4B8E8A2C9077834F9000F8EA8FB
:10149000099618980EE1BB0D6A7F2D3D6D08976C7B
:1014A0006491015C63E6F4516B6B62616C1CD83033
:1014B00065854E0062F2ED95066C7BA5011BC1F4BB
:1014C000088257C40FF5C6D9B06550E9B712EAB81B
:1014D000BE8B7C88B9FCDF1DDD62492DDA15F37CFB
:1014E000D38C654CD4FB5861B24DCE51B53A7400E3
:1014F000BCA3E230BBD441A5DF4AD795D83D6DC42B
:10150000D1A4FBF4D6D36AE96943FCD96E3446888A
:1015100067ADD0B860DA732D0444E51D03335F4C2A
:101520000AAAC97C0DDD3C710550AA4102271010A2
:101530000BBE86200CC925B56857B3856F2009D42A
:1015400066B99FE461CE0EF9DE5E98C9D92922986A
:10155000D0B0B4A8D7C7173DB359810DB42E3B5CAA
:10156000BDB7AD6CBAC02083B8EDB6B3BF9A0CE27C
:10157000B6039AD2B1743947D5EAAF77D29D152612
:10158000DB048316DC73120B63E3843B64943E6AD2
:101590006D0DA85A6A7A0BCF0EE49DFF099327AE12
:1015A000000AB19E077D44930FF0D2A3088768F22A
:1015B000011EFEC206695D5762F7CB676580713612
:1015C0006C19E7066B6E761BD4FEE02BD3895A7A32
:1015D000DA10CC4ADD676FDFB9F9F9EFBE8E43BE92
:1015E000B717D58EB060E8A3D6D67E93D1A1C4C27A
:1015F000D83852F2DF4FF167BBD16757BCA6DD0682
:10160000B53F4B36B248DA2B0DD84C1B0AAFF64A21
:101610000336607A0441C3EF60DF55DF67A8EF8EC1
:101620006E3179BE69468CB361CB1A8366BCA0D299
:101630006F2536E2685295770CCC03470BBBB91681
:1016400002222F260555BE3BBAC5280BBDB2925AC1
:10165000B42B046AB35CA7FFD7C231CFD0B58B9E41
:10166000D92C1DAEDE5BB0C2649B26F263EC9CA35A
:101670006A750A936D02A906099C3F360EEB8567D1
:10168000077213570005824ABF95147AB8E2AE2B51
:10169000B17B381BB60C9B8ED2920DBED5E5B7EF51
:1016A000DC7C21DFDB0BD4D2D38642E2D4F1F8B369
:1016B000DD686E83DA1FCD16BE815B26B9F6E17751
:1016C000B06F7747B718E65A0888706A0FFFCA3BB1
:1016D00006665C0B0111FF9E658F69AE62F8D3FF51
:1016E0006B6145CF6C1678E20AA0EED20DD7548319
:1016F000044EC2B30339612667A7F71660D04D4781
:101700006949DB776E3E4A6AD1AEDC5AD6D9660BA0
:10171000DF40F03BD83753AEBCA9C59EBBDE7FCFC0
:10172000B247E9FFB5301CF2BDBD8AC2BACA3093D8
:10173000B353A6A3B4240536D0BA9306D7CD295700
:10174000DE54BF67D9232E7A66B3B84A61C4021B40
:10175000685D942B6F2A37BE0BB4A18E0CC31BDFC0
:10176000055A8DEF022D4461746162617365206DCD
:10177000697373696E6700202D3E204572726F7227
:1017800000202D3E204E6F7420666F756E64002021
:101790002D3E200043524333322E2E2E2000616E08
:1017A0006420656E74657220612073656C65637476
:1017B000696F6E20627920747970696E672061208C
:1017C0006E756D62657228302D36293A205F2000D3
:1017D000506C656173652062726F7773652070610C
:1017E00067657320776974682027752728757029C5
:1017F00020616E642027642728646F776E29002992
:10180000000000002200250028002B002E003100DF
:10181000340002010000050108010B010000210055
:10182000240027002A002D003000330001010000B1
:10183000040107010A010505050507050808080850
:10184000020202020A0A0808040404040101010158
:101850000101010103030303030303030407070753
:101860000C0C0C0C0C0C0C0C0202020206060606F8
:10187000060606060B0B0B0B0B0B0B0B01021020C5
:1018800020080810204010204080020102010804B6
:10189000020101020408102040808040201008044A
:1018A00002018004020180402010080402010804A3
:1018B00002010102040810204080010204081020E7
:1018C00040807B8B698B11241FBECFEFD1E2DEBF3E
:1018D000CDBF00E00CBF14E0A0E0B2E0ECE5F0E525
:1018E00001E00BBF02C007900D92A430B107D9F7F9
:1018F0002CE0A4E0B4E001C01D92A33CB207E1F7E4
:101900001CE0C2E6DCE000E006C021970109802F60
:10191000FE010E94ACA4C136D10780E00807A9F7F8
:101920000E94238C0C941CA80C9400008EBD000017
:101930000DB407FEFDCF8EB5089520914804260F03
:101940003327331F21323105ECF420919B08FC0131
:1019500090E080E0243069F082E00895A09148048E
:101960002191AC014A5D5B4FA40FB52FB11D2C93A3
:101970000196861798F380914804680F6093480495
:1019800080E0089581E00895089508950895E09114
:10199000540880915308E81730F4F0E0EB5AF74F01
:1019A000808190E008958FEF9FEF08959091540803
:1019B000809153082FEF3FEF981748F4E92FF0E09C
:1019C000EB5AF74F208130E09F5F90935408C90194
:1019D00008958091530890915408891B990B08959C
:1019E000CF92DF92EF92FF920F931F93CF93DF93EB
:1019F0007C01CB018A012091A108222389F0EB010F
:101A00006B01C40ED51ECC15DD0569F06991D701B7
:101A1000ED91FC910190F081E02DC7011995F3CF74
:101A2000642F0E949D0CC801DF91CF911F910F91EF
:101A3000FF90EF90DF90CF900895CF93DF931F92A8
:101A4000CDB7DEB769832091A1082223F9F0209158
:101A5000C408203258F021E030E0FC0133832283B7
:101A600090E080E00F90DF91CF9108958091A208DF
:101A7000E82FF0E0ED55F74F998190838F5F8093C9
:101A8000A2088093C40881E090E0ECCF61E0CE0131
:101A900001960E949D0CF7CFFC01848D90E0982F59
:101AA0008827458D480F592F511DDF015C9630E086
:101AB00020E0808190E0982F88276181860F911D1A
:101AC000280F391F3296AE17BF0799F781E04217EA
:101AD000530709F080E00895089590E080E00895AC
:101AE00010929B0881E080939A081092750861E03B
:101AF00084E10E94718661E085E10E947186E9EBD4
:101B0000F0E080818E7F808380818D7F808388E478
:101B10008093B80085E48093BC0008954AE00E9459
:101B2000088281E892E00C94FB81EF92FF920F9380
:101B30001F93CF93DF931092540810925308109282
:101B4000A2081092C4080E94700D84EC9CE090934F
:101B500047048093460485EC9CE090934B0480936B
:101B60004A048091F80991E09093A1088093C308FA
:101B70001092A2081092C40881E00E946E7A81112E
:101B800032C180E00E94A87B90E0880F892F881FD7
:101B9000990B0197B1F362E987EB0E948D7B80E49A
:101BA00098E7ADE7B1E08093E7099093E809A09347
:101BB000E909B093EA091092EF091092F009109226
:101BC000F1091092F2092091D3093091D409409182
:101BD000D5095091D6096091D7097091D80910E0C4
:101BE00000E08091D9099091DA090E945B802091F0
:101BF000DB093091DC094091DD095091DE096091EB
:101C0000DF097091E00901E010E08091E109909115
:101C1000E2090E945B8060E880E10E948D7B60E8C1
:101C200081E10E948D7B60E882E10E948D7B60E80B
:101C300083E10E948D7B60E884E10E948D7B60E8F7
:101C400085E10E948D7B60E886E10E948D7B60E8E3
:101C500087E10E948D7B6CE080E10E948D7B6CE0CF
:101C600081E10E948D7B6CE082E10E948D7B6CE0C3
:101C700083E10E948D7B6CE084E10E948D7B6CE0AF
:101C800085E10E948D7B6CE086E10E948D7B6CE09B
:101C900087E10E948D7B10E000E020E030E24FE51C
:101CA00050EA62E170E080E090E00E945B8001E039
:101CB00010E020E030E24FE550EA62E170E080E0C1
:101CC00090E00E945B801092840910928309109228
:101CD000860910928509109288091092870910923E
:101CE0008A091092890910928C0910928B0910921E
:101CF0008E0910928D0981E090E090939009809375
:101D00008F09909392098093910970E060E090E0D0
:101D100080E00E94258170E060E081E090E00E9418
:101D2000258170E060E082E090E00E94258170E013
:101D300060E083E090E00E94258170E060E084E054
:101D400090E00E94258170E060E085E090E00E94D4
:101D5000258161E070E086E090E00E94258161E0ED
:101D600070E087E090E00E94258160E082EA0E94B6
:101D70008D7B60E083EA0E948D7B60E084EA0E94B4
:101D80008D7B60E281EB0E948D7B60E881EB0E949D
:101D90008D7BC3E9D9E089EFE82E89E0F82E10E0C9
:101DA00000E0188219821A821B821C821D821E8208
:101DB0001F82289660E0C8010E94AC7DF701119255
:101DC0007F010F5F1F4F0830110559F781E08093A5
:101DD000230460E070E0CB01DF91CF911F910F9160
:101DE000FF90EF90089580E0F2CF1F93CF93DF93A1
:101DF000182FEB010E944881209739F460E0812F71
:101E0000DF91CF911F910C947186CF3FD10511F4D2
:101E100061E0F5CFE12FF0E0EF5AF04FE491E150AF
:101E2000E23108F0B3C0F0E08827E65EF04F8F4F54
:101E30000C94ACA42C0F340F390F430F4D0FC60F69
:101E4000570F5F0F670F710F7B0F850F940F9E0F5A
:101E5000C60FA80FB20FBC0F84B5806884BDC7BD84
:101E6000DF91CF911F91089584B5806284BDC8BD74
:101E7000F7CF80918000806880938000D0938900A4
:101E8000C0938800EDCF80918000806280938000B5
:101E9000D0938B00C0938A00E3CF8091800088604C
:101EA00080938000D0938D00C0938C00D9CF809117
:101EB000B00080688093B000C093B300D1CF809110
:101EC000B00080628093B000C093B400C9CF80910D
:101ED0009000806880939000D0939900C093980000
:101EE000BFCF80919000806280939000D0939B0040
:101EF000C0939A00B5CF8091900088608093900045
:101F0000D0939D00C0939C00ABCF8091A0008068CF
:101F10008093A0008091A0008F7B8093A000D0933D
:101F2000A900C093A8009CCF8091A00080628093FC
:101F3000A000D093AB00C093AA0092CF8091A000E4
:101F400088608093A000D093AD00C093AC0088CF90
:101F500080912001806880932001D0932901C09353
:101F600028017ECF80912001806280932001D09350
:101F70002B01C0932A0174CF809120018860809347
:101F80002001D0932D01C0932C016ACFC038D10518
:101F90000CF03ECF33CF3FB7F8948091720490910C
:101FA0007304A0917404B091750426B5A89B05C074
:101FB0002F3F19F00196A11DB11D3FBFBA2FA92FC8
:101FC000982F8827BC01CD01620F711D811D911DC5
:101FD00042E0660F771F881F991F4A95D1F7089531
:101FE0008F929F92AF92BF92CF92DF92EF92FF9229
:101FF0004B015C010E94CB0F6B017C010E94CB0F57
:102000006C197D098E099F09683E73408105910511
:10201000A8F321E0821A9108A108B10888EEC80E41
:1020200083E0D81EE11CF11C81149104A104B104C9
:1020300029F7FF90EF90DF90CF90BF90AF909F90E7
:102040008F9008952FB7F89460916E0470916F048B
:1020500080917004909171042FBF08951F920F9288
:102060000FB60F9211242F933F938F939F93AF93AB
:10207000BF9380916E0490916F04A0917004B09111
:10208000710430916D0423E0230F2D3758F501962C
:10209000A11DB11D20936D0480936E0490936F0475
:1020A000A0937004B09371048091720490917304B2
:1020B000A0917404B09175040196A11DB11D809387
:1020C000720490937304A0937404B0937504BF9149
:1020D000AF919F918F913F912F910F900FBE0F90D5
:1020E0001F90189526E8230F0296A11DB11DD2CF8F
:1020F000FC01928183819CBD8DBD81E0878360E07E
:1021000085810E9471868FEF0C94960C8FEF0C9452
:10211000960CCF93DF93FC012781222349F0EC0139
:1021200061E085810E9471868FEF0E94960C1F826C
:10213000DF91CF9108951F93CF93DF93EC0188E552
:1021400092E00E945479182F882361F08DEF0E944D
:10215000960CCE010E9489101886812FDF91CF91B5
:102160001F9108958FE18E83CE010E948910F5CFD3
:102170000F931F93CF93DF938C01862FEA010E9468
:10218000960CFE0181918EBDDE5FEC17FD0741F0DC
:102190008191000000000DB407FEFDCF8EBDF5CF8C
:1021A0000DB407FEFDCF8FEF0E94960C8FEF0E94BB
:1021B000960C0E948610F80181878F71853059F046
:1021C00081E28683C8010E94891080E0DF91CF916F
:1021D0001F910F91089581E0F9CFDF92EF92FF9266
:1021E0000F931F93CF93DF93EC01162F022FF32E43
:1021F000E42ED52E0E9462128823C1F18F818111B5
:1022000003C0CE010E947810111128C0812F806474
:102210000E94960C8D2D0E94960C8E2D0E94960C7D
:102220008F2D0E94960C802F0E94960C87E811112A
:1022300001C085E90E94960C0E9486101AE00E9457
:102240008610898787FF02C01150C9F7DF91CF91AF
:102250001F910F91FF90EF90DF9008951C30B1F225
:102260008CE291E00E9454798111D0CF8FEFEECFB4
:102270008F929F92AF92BF92CF92DF92EF92FF9296
:102280000F931F93CF93DF93EC014A015B01690128
:102290008885823049F48B859C85AD85BE858815FF
:1022A0009905AA05BB0559F18A85A50194018330DA
:1022B00039F089E0220F331F441F551F8A95D1F74B
:1022C00069E1CE010E94ED10882399F08EE08E83A3
:1022D000CE010E94891080E0DF91CF911F910F9174
:1022E000FF90EF90DF90CF90BF90AF909F908F9036
:1022F000089582E088878B869C86AD86BE86F12C09
:10230000E12CE016F106A9F088E592E00E945479EC
:10231000811102C085E2DBCFA6016CEFCE010E94E5
:10232000B8108823A9F28FEFE81AF80A8EEFD81AAE
:10233000E8CF8B859C85AD85BE858E0D9F1DA11D2B
:10234000B11D8B879C87AD87BE878F858111C4CFD8
:10235000CE01DF91CF911F910F91FF90EF90DF9011
:10236000CF90BF90AF909F908F900C949B10EF9266
:10237000FF920F931F93CF93DF93EC0179011F8599
:10238000112369F001E010E00E943811182F812F0D
:10239000DF91CF911F910F91FF90EF9008958A8563
:1023A000833039F089E0440F551F661F771F8A95E7
:1023B000D1F79A01AB0168E1CE010E94ED108823AC
:1023C00031F08DE08E83CE010E948910E0CFA7010D
:1023D0006EEFCE010E94B8108823A9F388E592E041
:1023E0000E945479082F84E2002361F320E030E05A
:1023F000A9016DE0CE010E94ED10882311F08AE062
:10240000E1CF0E9486108111FACFCE010E9489107F
:10241000102FBDCFEF92FF921F93CF93DF93FC015C
:10242000208111E020FF12C0EC017C01FBE0EF0EE7
:10243000F11C4B815C816D817E81970189819A813C
:102440000E94B711182F811108C010E0812FDF9171
:10245000CF911F91FF90EF900895888181FD04C076
:1024600088818E7F8883F2CF4B815C816D817E81F4
:102470008F819885A985BA85480F591F6A1F7B1FD0
:10248000970189819A810E94B7118111E9CFDDCF2F
:10249000CF93DF93EC01188620E030E0A9016CE0D7
:1024A0000E94ED10882349F089E08E83CE010E94BE
:1024B000891080E0DF91CF910895CE010E948910AC
:1024C00081E0F8CFFC012085223011F40C949B10A0
:1024D000213011F40C94481281E00895CF93DF93DA
:1024E000EC010E940A12882341F0C55DDD4F88810E
:1024F0009981DF91CF910C94621280E0DF91CF91AE
:102500000895CF93DF93FC01C081D1810E942210F6
:10251000C61BD70B8D2F881F8827881FDF91CF916F
:1025200008958F929F92AF92BF92CF92DF92EF92D7
:10253000FF920F931F93CF93DF931F921F92CDB7FC
:10254000DEB77C014A015B016901FC0180858130B5
:1025500049F483859485A585B68588159905AA05CE
:10256000BB0581F1F7018285A5019401833039F023
:1025700089E0220F331F441F551F8A95D1F762E16E
:10258000C7010E94ED108823B1F08CE0F70186832B
:10259000C7010E94891080E00F900F90DF91CF91CA
:1025A0001F910F91FF90EF90DF90CF90BF90AF9071
:1025B0009F908F90089581E0F701808783869486AD
:1025C000A586B686F1E0CF1AFEEFDF0AB12CA12C6A
:1025D00099249A94A016B10609F43AC00E942210D8
:1025E000645D7E4F7A8369830E948610F70181873C
:1025F0008F3F41F4CE0101960E9481128823A1F3FE
:102600008EE1C4CF8E3F11F089E1C0CF9EBCF601B0
:10261000EF5FF140CE16DF0649F0000000000DB478
:1026200007FEFDCF8EB59EBC8193F4CF0DB407FE9F
:10263000FDCF8EB5F6018083F70111860E948610CA
:102640000E948610FFEFAF1ABF0A8EEFD81AC2CFD2
:10265000F70183859485A585B6858A0D9B1DA11DEF
:10266000B11D83879487A587B6878785811194CF0D
:10267000C7010E94481290CF8F929F92AF92BF9253
:10268000FF920F931F93CF93DF93DC011196ED918F
:10269000FC91EF2B61F490E080E0DF91CF911F91EE
:1026A0000F91FF90BF90AF909F908F900895F22E62
:1026B0004A015B01EC018B819C81AD81BE81881553
:1026C0009905AA05BB0561F0CE010E940A12882374
:1026D00011F3F2FE0DC018828B829C82AD82BE8205
:1026E0002F2D2370F880F22AF882CE010B96D5CFD9
:1026F00001E010E09E01255F3F4FB501A4018981F3
:102700009A810E9491128111E6CFC5CF8F929F923C
:10271000AF92BF92CF92DF92EF92FF920F931F93EF
:10272000423051056105710560F480E01F910F9101
:10273000FF90EF90DF90CF90BF90AF909F908F90E1
:102740000895FC01C08CD18CE28CF38CC416D506A4
:10275000E606F70650F3480159016A018581803287
:1027600029F584899589A689B78917E076956795B3
:10277000579547951A95D1F7480F591F6A1F7B1F28
:1027800023E0CF0180960E943C13009771F2CC0C9D
:10279000DD1CCC0CDD1CF1E0DF228C0D9D1DFC014D
:1027A00080829182A282B38281E0C0CF803109F021
:1027B000BCCF44895589668977894D0D511D611DAE
:1027C000711D23E0CF0180960E943C13009709F40D
:1027D000ACCFCC0CDD1CF1E0DF22C80ED91EF60117
:1027E00011830083E1CFCF92DF92EF92FF920F939C
:1027F0001F93CF93DF93423051056105710550F46B
:102800008FEFDF91CF911F910F91FF90EF90DF90AD
:10281000CF900895FC01C08CD18CE28CF38CC4164F
:10282000D506E606F70660F389016A01EC018581A9
:10283000803299F584899589A689B789E7E07695EC
:10284000679557954795EA95D1F7480F591F6A1F25
:102850007B1F22E0CE0180960E943C13009781F2FC
:10286000CC0CDD1CCC0CDD1CF1E0DF228C0D9D1DA1
:10287000FC0180819181A281B381488D598D6A8D3F
:102880007B8D481759076A077B0730F1F801808371
:102890009183A283B38381E0B4CF803109F0B0CFBC
:1028A00044895589668977894D0D511D611D711DBA
:1028B00022E0CF0180960E943C13009709F4A0CF3C
:1028C000CC0CDD1CF1E0DF22C80ED91EF6018081A0
:1028D0009181B0E0A0E0D1CF80E093CF4F925F92A2
:1028E0006F927F928F929F92AF92BF92CF92DF9220
:1028F000EF92FF920F931F93CF93DF93EC014A0166
:102900005B014C845D846E847F842881222309F4DA
:102910005CC0488959896A897B89481559056A05C7
:102920007B0581F081149104A104B10469F41C8633
:102930001D861E861F86888A998AAA8ABB8A8A81F2
:102940008F7D8A8381E046C023FF2CC0888D998DBE
:10295000AA8DBB8D88159905AA05BB05B0F1EE813E
:10296000FF813481375F7501640181E0C81AD108A5
:10297000E108F108032E04C0F694E794D794C794B5
:102980000A94D2F78A8186FF36C08C8D9D8DAE8DDC
:10299000BF8D8C0D9D1DAE1DBF1D8C879D87AE8785
:1029A000BF87C9CF26FFDBCFEE81FF81868197816C
:1029B00025E0880F991F2A95E1F7B0E0A0E088157F
:1029C0009905AA05BB0508F0B6CF4C865D866E86D4
:1029D0007F8680E0DF91CF911F910F91FF90EF9064
:1029E000DF90CF90BF90AF909F908F907F906F902F
:1029F0005F904F900895DB01CA010197A109B109C9
:102A000004C0B695A795979587953A95D2F7C816BD
:102A1000D906EA06FB0620F0452B462B472B49F545
:102A200027FF22C0848D958DA68DB78D8C879D87BD
:102A3000AE87BF878E01045F1F4FC114D104E1042C
:102A4000F10409F478CF4C855D856E857F8598010A
:102A50008E819F810E94F31391E0C91AD108E10889
:102A6000F108181654F3B1CF8C8D9D8DAE8DBF8DAE
:102A7000DDCFC81AD90AEA0AFB0ADCCF3F924F928F
:102A80005F926F927F928F929F92AF92BF92CF92FE
:102A9000DF92EF92FF920F931F93CF93DF9300D0BB
:102AA0001F92CDB7DEB75C01FC0144845584668477
:102AB000778486809780F401C084D184E284F38493
:102AC000C414D504E604F704C0F47301620110E0F5
:102AD000FFEFCF1ADF0AEF0AFF0AF401808D918D14
:102AE000A28DB38D8C159D05AE05BF0540F4111167
:102AF00032C0C084D184E284F38411E0E9CF4C1465
:102B00005D046E047F0439F19E012F5F3F4FB701D2
:102B1000A601C4010E94F31387FD1DC08823C1F2E2
:102B200089819A81AB81BC81892B8A2B8B2B81F681
:102B3000112329F0F401C086D186E286F3860FEFD7
:102B40001FEF2FEF3FE0B701A601C4010E948613DB
:102B5000382E811118C0312C832D0F900F900F90BB
:102B60000F90DF91CF911F910F91FF90EF90DF9029
:102B7000CF90BF90AF909F908F907F906F905F901D
:102B80004F903F9008954114510461047104B9F4C9
:102B9000F501C486D586E686F78682814114510404
:102BA00061047104B1F0FFEF4F1A5F0A6F0A7F0AE8
:102BB0004C145D046E047F0479F08F7B0BC0970189
:102BC0008601B301A201C4010E9486138111E0CFE6
:102BD000C2CF8064F5018283F5018281806882839F
:102BE000BBCFAF92BF92CF92DF92EF92FF920F9343
:102BF0001F93CF93DF93EC01888186FF0DC010E017
:102C0000812FDF91CF911F910F91FF90EF90DF9077
:102C1000CF90BF90AF90089588899989AA89BB8980
:102C200081159E4FAF41B10550F7CE010E943E1570
:102C3000182F882321F3EE81FF81CC84DD84EE847C
:102C4000FF8432E0C31AD108E108F108848104C08E
:102C5000CC0CDD1CEE1CFF1C8A95D2F78089918973
:102C6000A289B389C80ED91EEA1EFB1E00E0A12C62
:102C700082E0B82EEE81FF8182810817B0F425E052
:102C8000B701A601400F511D611D711DCF01809636
:102C90000E943C13009709F4B2CFFC0195011192F8
:102CA00021503040E1F70F5FE5CF848120E032E032
:102CB00002C0220F331F8A95E2F788899989AA8971
:102CC000BB89820F931FA11DB11D888B998BAA8B85
:102CD000BB8B96CF8F929F92AF92BF92CF92DF9293
:102CE000EF92FF920F931F934230510561057105DA
:102CF00060F480E01F910F91FF90EF90DF90CF90F4
:102D0000BF90AF909F908F900895FC01E55EFD4FBE
:102D1000C080D180E280F380EFEFCE1ADE0AEE0AA7
:102D2000FE0AC416D506E606F70618F3480159014F
:102D30006A01FC01E15FFD4F37E076956795579595
:102D400047953A95D1F70081118122813381400F57
:102D5000511F621F731F21E00E943C13009749F22C
:102D6000CC0CDD1CCC0CDD1CF1E0DF22C80ED91E22
:102D7000F60180829182A282B38281E0BBCFCF92A2
:102D8000DF92EF92FF920F931F93CF93DF93E901AE
:102D9000FC01E55EFD4F00811181228133810F5FCF
:102DA0001F4F2F4F3F4F041715072607370750F4C3
:102DB0008FEFDF91CF911F910F91FF90EF90DF90F8
:102DC000CF9008956A01FC01E15FFD4F37E07695F1
:102DD0006795579547953A95D1F7008111812281E2
:102DE0003381400F511F621F731F20E00E943C136C
:102DF0000097F1F2CC0CDD1CCC0CDD1C21E0D222C2
:102E0000C80ED91EF60180819181A281B3818F3FC6
:102E1000FFEF9F07AF07BF0731F088839983AA832D
:102E2000BB8381E0C6CF80E0C4CF2F923F924F9208
:102E30005F926F927F928F929F92AF92BF92CF924A
:102E4000DF92EF92FF920F931F93CF93DF93CDB753
:102E5000DEB762970FB6F894DEBF0FBECDBF988B7A
:102E60008F874801222E3D834E83352E2B01DC01B6
:102E700058962D913D914D915C915B972B873C87A6
:102E80004D875E879C96BC91BF83BB2309F4E3C04A
:102E9000FC01F081F887DC011196BC91B987FC0137
:102EA000F281FA87DC0113966C90139714967C904C
:102EB00014971596BC91FC01F681F98BFC01F78102
:102EC000FA8B288539854A85562D672D7B2F898970
:102ED0009F2F5801C22CDD80EE80F32C82010E94CE
:102EE00062A6F1F09401422D5D2D6E2D732DC2016D
:102EF000A0E00E946BA6B1F4AF85B88958961D92E8
:102F00001D921D921C925B97EF85F88980829182B9
:102F100022822D8123833E813483358246825782EB
:102F200081E0A4C0EF81E3FF10C0EF85F88920891C
:102F30003189428953896489758986899789DD80B9
:102F4000EE800E9462A608F486C0EF85F889A0A0F2
:102F5000B1A0C501825D9D4FFC011081175F9401F6
:102F6000422D5D816E81732DC201AFEF0E944DA68F
:102F7000012F0E9429A6942F852FA901692F782F50
:102F800069017B01EF85F88986A586FF0DC0848DD8
:102F9000958DA68DB78D840F951FA61FB71F808FA7
:102FA000918FA28FB38FB0CF288539854A85562D52
:102FB000672D7B2F89899A89AFEF0E944DA60E94C9
:102FC00029A629833A834B835C8329813A814B81EB
:102FD0005C81C216D306E406F50668F028853985BB
:102FE0004A85562D672D7B2F89899A89A0E00E94FA
:102FF0006BA609F05BC0BF81B6FF51C0F501E15E71
:10300000FD4F80819181A281B381EF85F889808F06
:10301000918FA28FB38F6F84788838E1630E711C13
:10302000C114D104E104F10409F46ECFAF85B8896D
:1030300058964D915D916D917C915B97930190961F
:103040008D919C910E94BF16B1E0CB1AD108E10886
:10305000F10818162CF38B859C85AD85BE85EF8510
:10306000F889808F918FA28FB38F80E062960FB620
:10307000F894DEBF0FBECDBFDF91CF911F910F91AE
:10308000FF90EF90DF90CF90BF90AF909F908F9088
:103090007F906F905F904F903F902F900895EF85B5
:1030A000F889848D958DA68DB78DAFCF29813A8112
:1030B0004B815C81C21AD30AE40AF50AACCF0F93A4
:1030C0001F93CF93DF93EB01E42FDC01AD5DBD4F88
:1030D0004D915D916D917C9113970C811D812E8195
:1030E0003F81402351236223732329E0769567951E
:1030F000579547952A95D1F7088119812A813B81F7
:1031000002501109210931091B96FC9104C0000FDE
:10311000111F221F331FFA95D2F7400F511F621F54
:10312000731F57970D911D912D913C91400F511F89
:10313000621F731F2E2F0E943C13009729F02C81D1
:103140003D813170820F931FDF91CF911F910F91BD
:1031500008959F92AF92BF92CF92DF92EF92FF922B
:103160000F931F93CF93DF9300D000D000D0CDB743
:10317000DEB78C01942E89E0F801B296DE0111963B
:1031800001900D928A95E1F7F801A0A0B1A0F0E2BC
:103190006F9FC0011124B0E0A0E04D815E816F817E
:1031A0007885F501ED5DFD4FC080D180E280F38030
:1031B000C422D522E622F722C80ED91EEA1EFB1E23
:1031C000840F951FA61FB71F8D839E83AF83B8877B
:1031D0003B968081875F04C0F694E794D794C794A8
:1031E0008A95D2F7C114D104E104F10489F149812F
:1031F0005A816B817C818985882371F04F5F5F4F95
:103200006F4F7F4F49835A836B837C8321E0C21ABF
:10321000D108E108F108E6CF9E012F5F3F4FC501BD
:103220000E94BF16813091F390E080E029960FB69E
:10323000F894DEBF0FBECDBFDF91CF911F910F91EC
:10324000FF90EF90DF90CF90BF90AF909F90089548
:10325000492DBE016F5F7F4FF80180A191A10E94AF
:103260005F18E4CF4F925F926F927F928F929F92FE
:10327000AF92BF92CF92DF92EF920F931F93CF93B3
:10328000DF936C0148015901DB01CA010297A109D2
:10329000B109AC01BD01480D591D6A1D7B1DF60128
:1032A000E55EFD4F008111812281338104171507EE
:1032B0002607370708F47FC07097408051806280EE
:1032C0007380EE2009F46CC0481659066A067B0626
:1032D00088F0441655066606770660F440175107D5
:1032E0006207730718F040E050E0BA014083518351
:1032F000628373839C012770332711E001C0110F93
:103300002A95EAF72C013D012CE0769467945794B6
:1033100047942A95D1F7F601E95EFD4F408151812E
:1033200062817381440D551D661D771D33E0B6958E
:10333000A795979587953A95D1F7EC01D1702A0119
:103340003B012FEF421A520A620A720A21E0C601BB
:103350000E943C13009779F1FC01EC0FFD1FA12F97
:103360002081422F4A2331E009F430E03E1519F163
:103370002A272083B1E08B1A9108A108B10861F1D6
:10338000AA0F71F73196B301A201D0E0C0E011E0BD
:10339000A1E09F01281B390B2115324009F7CFCF3F
:1033A00084159505A605B70508F0A4CF8083918301
:1033B000A283B3839FCF80E0DF91CF911F910F91C4
:1033C000EF90DF90CF90BF90AF909F908F907F90C5
:1033D0006F905F904F90089581E0EECF4F925F9293
:1033E0006F927F928F929F92AF92BF92CF92DF9215
:1033F000EF92FF920F931F93CF93DF9300D01F9212
:10340000CDB7DEB74C016A017B012A013B019E0169
:103410002F5F3F4FB701A601C4010E94BF16A82E1F
:1034200087FD49C000E010E09801B701A601C40182
:103430000E946A16B82E8823F1F18FEFC81AD80AB5
:10344000E80AF80AAA2049F089819A81AB81BC81F7
:103450008C159D05AE05BF0591F0970186010419F5
:10346000150926093709E12CB301A201C4010E9404
:103470003219882301F149805A806B807C80C98091
:10348000DA80EB80FC80A110C2CF8B2D0F900F90C3
:103490000F900F90DF91CF911F910F91FF90EF90C0
:1034A000DF90CF90BF90AF909F908F907F906F9064
:1034B0005F904F900895B12CE8CF4F925F926F923A
:1034C0007F928F929F92AF92BF92EF92FF920F9353
:1034D0001F93CF93DF93EC0188A199A1488D598D5B
:1034E0006A8D7B8D4115510561057105F9F04F5FBE
:1034F0005F4F6F4F7F4F0E9477794B015C0122E055
:1035000082169104A104B104A8F4F12C8F2DDF914F
:10351000CF911F910F91FF90EF90BF90AF909F9030
:103520008F907F906F905F904F90089540E050E0B3
:10353000BA01E1CFEE24E39401E010E020E030E0B6
:10354000BC01A40188A199A10E943219F82E8823F8
:10355000E1F2488D598D6A8D7B8D8EA541155105FF
:103560006105710539F480648EA7888E998EAA8EC4
:10357000BB8ECCCF86FF2AC04F5F5F4F6F4F7F4F10
:10358000481559056A057B0581F38F7B8EA74C8D05
:103590005D8D6E8D7F8D88A199A1488C598C6A8C28
:1035A0007B8C441555056605770580F42A013B019F
:1035B0002FEF421A520A620A720A930182010E9494
:1035C0006A16B301A2018111E6CF9FCF0FEF1FEF63
:1035D0009801B501A40188A199A10E946A168823C7
:1035E00009F493CF488D598D6A8D7B8D4115510516
:1035F0006105710509F4B9CF9501840188A199A1EC
:103600000E946A168111B1CF80CF2F923F924F92C4
:103610005F926F927F928F929F92AF92BF92CF9262
:10362000DF92EF92FF920F931F93CF93DF93CDB76B
:10363000DEB762970FB6F894DEBF0FBECDBF7A87B4
:1036400069875E874D87DC01D0960D90BC91A02DD7
:10365000B88BAF87109709F483C112968C9181FFC4
:10366000BCC083FDADC0ED85FE85AF0170E060E0BC
:10367000EF85F88980899189A289B3898095909591
:10368000A095B09584179507A607B70708F4A5C0BD
:10369000CD84DE8444244A94542C32013C96FC8729
:1036A000EB87EF85F88980889188A288B388C11458
:1036B000D10409F428C126803780D1011396FC90EB
:1036C000B501A40199E076956795579547959A9528
:1036D000D1F7F42284011170F11023C0448555857F
:1036E000668577850115110509F0D9C34115510586
:1036F0006105710509F4A9C0228126FF76C0808D7D
:10370000918DA28DB38D88169906AA06BB0608F086
:103710006CC04F5F5F4F6F4F7F4F44875587668701
:103720007787AF85B8891696ED91FC9117971C960F
:103730004D915D916D917C911F97425051096109A6
:103740007109848104C0440F551F661F771F8A9535
:10375000D2F780899189A289B389840F951FA61F0A
:10376000B71FAC01BD014F0D511D611D711D01152C
:10377000110509F0A9C3C114B2E0DB0608F4A4C323
:1037800083A094A0A5A0B6A021A032A0C11424E0DB
:10379000D20608F07EC0481559056A057B0529F454
:1037A00010A243A254A265A276A229853A85C1013E
:1037B0000E94B711882389F0E12C52E0F52EC8C38E
:1037C000AF85B88958964D915D916D917C915B97CD
:1037D000CD010E946E14811146CFEF85F889818159
:1037E000816081831E861D86A0C02B853C85C1011A
:1037F0000E94F31387FDF1CF811106C08F85988950
:103800000E943E15882349F3AF85B8891696ED913D
:10381000FC9117971C964D915D916D917C911F972E
:103820004250510961097109848104C0440F551F38
:10383000661F771F8A95D2F780899189A289B389FB
:10384000480F591F6A1F7B1F96CFEF85F889848D1B
:10385000958DA68DB78D0097A105B10589F4CF018F
:103860000E943E15882309F4B8CFEF85F889848536
:103870009585A685B785848F958FA68FB78F51CFF5
:10388000EF85F88984879587A687B7874ACF21E097
:1038900042C38601012F1127069530E020E0828186
:1038A0008F19990B092E000CAA0BBB0B08171907CF
:1038B0002A073B0710F4D901C8018C019D010F2E86
:1038C000F9E0000F111F221F331FFA95D1F7F02DD9
:1038D00078018C0184169506A606B70670F0840F51
:1038E000951FA61FB71F88169906AA06BB0628F4BF
:1038F00010A243A254A265A276A229853A85C101ED
:103900000E94381122C3EF85F889808D918DA28D98
:10391000B38D88159905AA05BB0538F4808E918E64
:10392000A28EB38E8281806882838D859E85629609
:103930000FB6F894DEBF0FBECDBFDF91CF911F91C0
:103940000F91FF90EF90DF90CF90BF90AF909F903E
:103950008F907F906F905F904F903F902F90089541
:10396000DC01D2960D90BC91A02DBA8BA98B10973B
:1039700009F438CF9E968C9181FF0CC183FDEBC07A
:10398000ED85FE85FC87EB8729893A89285E3F4FC4
:10399000388B2F87E989FA892080318042805380D3
:1039A00064807580868097802B853C85232B09F465
:1039B00035C200A0F1A1E02DDF01AD5DBD4FCD907E
:1039C000DD90ED90FC90C220D320E420F52016017C
:1039D00031E03322C114D104E104F10409F056C0EE
:1039E000A989BA8958968D909D90AD90BC905B97AF
:1039F00081149104A104B10409F4F0C09E968C9145
:103A00009E9786FFDBC05C964D905D906D907C909C
:103A10005F9718962C91189719963C9119971A96BA
:103A20004C911A971B965C911B971C966C911C9756
:103A30001D967C911D971E968C911E971F969C91AA
:103A4000AFEF0E944DA6E25DFD4F0081075F0E942F
:103A500029A629833A834B835C836D837E838F837E
:103A6000988729813A814B815C81420E531E641EE6
:103A7000751E84149504A604B70408F491C08989BE
:103A80009A890E945D1A882309F484C0A989BA8999
:103A90009096ED91FC91DF01A25DBD4F2C912983A1
:103AA0004601570149E0B694A794979487944A95A4
:103AB000D1F7A989BA8958964D905D906D907C9008
:103AC0005B97B2E04B1A51086108710804C0440CBE
:103AD000551C661C771C2A95D2F7480C591C6A1C89
:103AE0007B1CDF01A95EBD4F8D919D910D90BC9116
:103AF000A02D480E591E6A1E7B1E2114310409F0A8
:103B00008EC02B853C85211542E0340708F487C020
:103B1000C380D480E580F680818192812115344074
:103B200008F033C14C145D046E047F0441F410822C
:103B30004FEF5FEFBA014383548365837683298512
:103B40003A85B301A2010E94B711882319F1812C93
:103B500082E0982EC4C0A989BA8950960C915097DA
:103B600051961C91519752962C91529753963C9195
:103B7000539754964C91549755965C9155975696F9
:103B80006C91569757967C915797CD010E941517C7
:103B90008111F6CEE989FA8985A5816085A722CEB3
:103BA0003FEF831A930AA30AB30AA989BA895896E0
:103BB0008D929D92AD92BC925B9768CF2F8538898C
:103BC000B501A401CF010E94BF16082E000C990B6D
:103BD00097FDE0CF892B09F452CF58CFE989FA89B4
:103BE000848D958DA68DB78D0097A105B10581F4C3
:103BF000CF010E945D1A882369F2E989FA89808DD4
:103C0000918DA28DB38D848F958FA68FB78F3ECF68
:103C1000E989FA89808F918FA28FB38F37CF80E0A7
:103C200092E0821993098B849C848815990508F485
:103C30004C012114310409F0A6C0A989BA892C913C
:103C400011963C91119712964C91129713965C9194
:103C5000139714966C91149715967C91159750961E
:103C6000AC9050975196BC9051975296CC905297E9
:103C70005396DC9053975496EC9054975596FC903D
:103C8000559756960C91569757961C91579716969E
:103C90008C91169717969C910E9462A608F473C0A7
:103CA00025E0B301A201CF010E943C13009709F463
:103CB00071CFA40169857A85820D931D0E946EA73C
:103CC000280C391C2114B2E03B0649F4E989FA8931
:103CD00080A191A10E940A12882309F45BCF94016C
:103CE00040E050E060E070E080E090E0A989BA89AF
:103CF000AC901196BC9011971296CC901297139697
:103D0000DC9013971496EC9014971596FC901597E9
:103D100016960C91169717961C910E9444A629019D
:103D20003A01382EE989FA892083518242837382CD
:103D3000648375838683978329853A85280D391D89
:103D40003A8729874B855C85481959095C874B87D9
:103D5000A088B188C288D388E488F5880689178945
:103D60009201A3010E9462A609F008F413CE86A571
:103D7000806886A7408A518A628A738A648B758BB1
:103D8000368A978B07CE21E08CCF0B851C85012FBF
:103D90001127069530E020E041E050E060E070E05F
:103DA000098004C0440F551F661F771F0A94D2F77D
:103DB00049835A836B837C83481959096A097B09B3
:103DC000041715072607370710F4B901A8014A019F
:103DD0005B0129E0880C991CAA1CBB1C2A95D1F711
:103DE0008A01C414D504E604F70488F0440D551D77
:103DF000661D771DC416D506E606F70640F4108248
:103E00002FEF3FEFA9012383348345835683298510
:103E10003A85B301A2010E9438115ECFA989BA89FF
:103E200018962C91189719963C9119971A964C91BF
:103E30001A971B965C911B971C966C911C971D966C
:103E40007C911D971E968C911E971F969C911F9793
:103E500051016201730184010E9462A608F065CDE0
:103E600018962C92189719963C9219971A964C927C
:103E70001A971B965C921B971C966C921C971D962A
:103E80007C921D971E968C921E971F969C921F9750
:103E90009E968C919E9780689E968C9346CDF1015C
:103EA0004250510961097109848104C0440F551FB2
:103EB000661F771F8A95D2F780899189A289B38975
:103EC000480F591F6A1F7B1F80E092E0801B910BF7
:103ED00076018C159D0508F47C010115110509F08A
:103EE000D6CCAF85B88950968D909D90AD90BC9002
:103EF000539758968D919D910D90BC91A02D881649
:103F00009906AA06BB0630F4AF85B88912968C9143
:103F100085FFBDCC25E0CF0180960E943C13009721
:103F200009F45BCCA70169857A85800F911F0E94F7
:103F30006EA70E0D1F1D0115124051F4EF85F88973
:103F40008681978180960E940A12882309F445CCC5
:103F5000EF85F88980899189A289B3898E0D9F1D8B
:103F6000A11DB11D808B918BA28BB38B29853A85C6
:103F70002E0D3F1D3A872987CE18DF0892CBCF93AD
:103F8000DF931F92CDB7DEB7698341E050E0BE01F9
:103F90006F5F7F4F04960E94051B0F90DF91CF91BA
:103FA00008950C960C94051BCF93DF931F92CDB709
:103FB000DEB7698341E050E0BE016F5F7F4F0C9632
:103FC0000E94051B0F90DF91CF910895AF92BF9291
:103FD000CF92DF92EF92FF920F931F93CF93DF93D5
:103FE000EC016A017B0159018B819C81AD81BE810D
:103FF0008C159D05AE05BF0590F49501B701A6018E
:1040000089819A810E949112DF91CF911F910F9126
:10401000FF90EF90DF90CF90BF90AF900895400F4A
:10402000511F611D711D84179507A607B70728F753
:10403000CE010E940A128111E0CFE6CF2F923F926B
:104040004F925F927F928F929F92AF92BF92CF9248
:10405000DF92EF92FF920F931F93CF93DF93EC01C8
:104060004B017A018A8180FFD5C0888183FF16C009
:10407000888D998DAA8DBB8D488959896A897B89DC
:10408000841B950BA60BB70BA70170E060E04817E7
:1040900059076A077B07A0F07C0112C086FF10C099
:1040A000EE81FF818681978155E0880F991F5A958F
:1040B000E1F728893989821B930B8E159F0560F3E0
:1040C0006701712C1E018CE0280E311C412C42E04E
:1040D000542EC114D10409F4F3C0488959896A895E
:1040E0007B89EE81FF818A0111702881DB01CA0181
:1040F00039E0B695A795979587953A95D1F726FF1C
:1041000030C0448D558D668D778D480F591F6A1FBD
:104110007B1FEE81FF810115110509F081C0C114DB
:1041200082E0D80608F47CC083A194A1A5A1B6A121
:10413000481759076A077B0709F472C0C11484E065
:10414000D80608F094C001E010E0940181A192A18A
:104150000E949112882309F45DC0A12C82E0B82E40
:1041600075C0738078220115110581F471100EC09D
:10417000452B462B472B81F527FF29C0848D958D34
:10418000A68DB78D8C879D87AE87BF87EE81FF8117
:104190004C855D856E857F854250510961097109A5
:1041A000848104C0440F551F661F771F8A95D2F77C
:1041B00080899189A289B389840F951FA61FB71F93
:1041C000AC01BD01470D511D611D711DA2CF8C8D2C
:1041D0009D8DAE8DBF8DD6CF4C855D856E857F85DF
:1041E00023FF0CC08A8186FF09C04F5F5F4F6F4F6E
:1041F0007F4F4C875D876E877F87C8CF9101CF0146
:104200000E94F31387FD06C08111C0CF8881807D95
:1042100009F056C08981826089838FEF9FEF53C078
:10422000C201801B910B56018C159D0508F45C01A1
:1042300020E0CF0180960E943C13009759F3BC0107
:10424000600F711FA501C4010E946EA78A0C9B1C00
:1042500088899989AA89BB898A0D9B1DA11DB11DD9
:10426000888B998BAA8BBB8BCA18DB0832CF86014F
:10427000012F1127069530E020E0888186FD0EC0D1
:1042800082818719990B092E000CAA0BBB0B801792
:104290009107A207B30710F48C019D01D901C80151
:1042A00029E0880F991FAA1FBB1F2A95D1F75C012F
:1042B0009401CF0180960E94E61F8111C7CFAACF3B
:1042C000C7018C199D09DF91CF911F910F91FF902C
:1042D000EF90DF90CF90BF90AF909F908F907F90A6
:1042E0005F904F903F902F9008952F923F924F9262
:1042F0005F926F927F928F929F92AF92BF92CF9276
:10430000DF92EF92FF920F931F93CF93DF93CDB77E
:10431000DEB72E970FB6F894DEBF0FBECDBF9E87D7
:104320008D877A8769875C874B87DC019E968C91A5
:104330009E9780FF45C186FD04C09C968C9183FFAB
:104340004FC0ED85FE85F081F983AD85BE85119660
:10435000BC91BA83ED85FE85F281FB83AD85BE8578
:104360001396BC91BC83ED85FE85F481FD83AD85FC
:10437000BE851596BC91BE83ED85FE85F681FF83D3
:10438000AD85BE851796BC91B887ED85FE852088E2
:1043900031884288538864887588868897882B85F9
:1043A0003C8540E050E060E070E080E090E0A98073
:1043B000BA80CB80DC80ED80FE800F8118850E9462
:1043C00044A651016201730184010E9462A641F07A
:1043D00038F0C101A981BA818A1B9B0B9C878B870E
:1043E0008B849C842D843E84B8E12B0E311C811477
:1043F000910409F46FC1ED85FE85F081F983AD85E7
:10440000BE851196BC91BA83ED85FE85F281FB8352
:10441000AD85BE851396BC91BC83ED85FE85F48188
:10442000FD83AD85BE851596BC91BE83ED85FE8569
:10443000F681FF83AD85BE851796BC91B887AD85A3
:10444000BE859096ED91FC91DF01AD5DBD4FCD90A5
:10445000DD90ED90FC9089819A81AB81BC81C8226E
:10446000D922EA22FB22260191E05922C114D1046B
:10447000E104F104F9F429813A814B815C816D8179
:104480007E818F819885A0E00E946BA609F072C0A2
:10449000AD85BE859C968C9186FF65C0E15EFD4F23
:1044A00080819181A281B381ED85FE85808F918F7E
:1044B000A28FB38FED85FE8580A191A1FC01E25D05
:1044C000FD4FA08149E0F694E794D794C7944A95AC
:1044D000D1F7ED85FE85408D518D628D738D4250F3
:1044E0005109610971090A2E04C0440F551F661F46
:1044F000771F0A94D2F74C0D5D1D6E1D7F1DFC01C8
:10450000E95EFD4F0081118122813381400F511FEF
:10451000621F731F4114510409F05AC08114F2E064
:104520009F0608F455C0FC01038114812581368162
:10453000401751076207730709F44AC08114F4E079
:104540009F0608F09AC001E010E029853A85DC0159
:1045500011968D919C910E949112882389F1612C72
:1045600082E0782E4BC0ED85FE85848D958DA68DDD
:10457000B78D9ACFAD85BE8558964D915D916D9161
:104580007C915B979E968C919E9786FF0AC04F5FA9
:104590005F4F6F4F7F4FFD01408F518F628F738F41
:1045A00089CF9101CF010E94BF1687FD09C08111FB
:1045B00081CFAD85BE859C968C91807509F08AC0AF
:1045C000ED85FE8585A5826085A78FEF9FEF86C06C
:1045D00020E032E02419350934012815390508F4A2
:1045E000390120E00E943C13009751F3BC01640D97
:1045F000751DA30189859A850E946EA7E985FA85B4
:10460000E60DF71DFA87E987930140E050E060E08E
:1046100070E080E090E0AD85BE85AC901196BC90D6
:1046200011971296CC9012971396DC9013971496CC
:10463000EC9014971596FC90159716960C9116977A
:1046400017961C9117970E9444A62C9311963C93A1
:10465000119712964C93129713965C931397149696
:104660006C93149715967C93159716968C931697C2
:1046700017969C9386189708BACE2401452C55248A
:104680004694712C612C01E010E020E030E004C081
:10469000000F111F221F331FAA95D2F70C191D09F5
:1046A0002E093F09401651066206730610F4930165
:1046B00082016801790129E0CC0CDD1CEE1CFF1C95
:1046C0002A95D1F7360129853A850E94E61F811186
:1046D00095CF76CF8B859C85881999092E960FB634
:1046E000F894DEBF0FBECDBFDF91CF911F910F9128
:1046F000FF90EF90DF90CF90BF90AF909F908F9002
:104700007F906F905F904F903F902F9008954F92C1
:104710005F926F927F928F929F92AF92BF92CF9251
:10472000DF92EF92FF920F931F93CF93DF931F922D
:10473000CDB7DEB7FC0104AD15AD0115110599F13A
:10474000F80180889188A288B388C484D584E684DF
:10475000F78441E050E0BE016F5F7F4FC8010E94C7
:104760001E200197E9F4898190E0F801808A918AFE
:10477000A28AB38AC486D586E686F7860F90DF9133
:10478000CF911F910F91FF90EF90DF90CF90BF904E
:10479000AF909F908F907F906F905F904F90089513
:1047A0008FEF9FEFE2CF06AD17AD8FEF9FEF0115B3
:1047B000110521F3F801408051806280738084806C
:1047C0009580A680B780C08CD18CE28CF38C41E0C0
:1047D00050E0BE016F5F7F4FC8010E9475210197B5
:1047E00081F4898190E0F801408251826282738273
:1047F00084829582A682B782C08ED18EE28EF38E9D
:10480000BDCF8FEF9FEFEFCF9F92AF92BF92CF922E
:10481000DF92EF92FF920F931F93CF93DF9300D01D
:104820001F92CDB7DEB75C016A017B019E012F5F4D
:104830003F4FB701A601C5010E94F313982E87FDD3
:1048400034C000E010E09801B701A601C5010E9444
:104850008613882351F1F501408551856285738562
:10486000C416D506E606F70650F4F1E0CF1AD108D3
:10487000E108F108F501C086D186E286F386C98099
:10488000DA80EB80FC809110D1CF0F900F900F90C9
:104890000F90DF91CF911F910F91FF90EF90DF90DC
:1048A000CF90BF90AF909F90089580E0EECFFC0135
:1048B0009C01255F3F4F80E080FB879587F99191B0
:1048C000890FE217F307C1F70895EF92FF920F9354
:1048D0001F93CF93DF931F92CDB7DEB77C01962F46
:1048E000F70140895189628973898A019B0185E0BA
:1048F00036952795179507958A95D1F70F7011F082
:1049000091112BC041E050E0BE016F5F7F4FC701A6
:104910000E941E20813051F090E080E00F90DF91E6
:10492000CF911F910F91FF90EF900895F70180892B
:104930009189A289B3894F96A11DB11D808B918B5E
:10494000A28BB38BF701868197818B96F0E20F9F44
:1049500090011124820F931FE1CF405E5F4F6F4F94
:104960007F4F408B518B628B738BECCFCF93DF9358
:10497000EC01AB0170E060E085E0440F551F661F5D
:10498000771F8A95D1F7CE010E946E14882331F0EB
:1049900060E0CE01DF91CF910C94652490E080E03F
:1049A000DF91CF910895FC01808181110EC080E2DA
:1049B000DF011D928A95E9F777836683DB011596FF
:1049C0008C91803121F0803239F080E0089580E4CC
:1049D000808381E08283089580E8FACFCF92DF92CE
:1049E000EF92FF920F931F93CF93DF93FC0180E22E
:1049F000DF011D928A95E9F7DB011696CD91DC91D6
:104A00001797D783C683558344835C96CD90DD90FA
:104A1000ED90FC905F97C086D186E286F386DE013A
:104A20009B964F70552795E0440F551F9A95E1F7D7
:104A3000A40FB51F1B968C911B9783FD12C0877323
:104A400080831B969C911B97987111F488608083DA
:104A500003832370213009F448C038F0223009F470
:104A600042C01082128280E035C081E08283828160
:104A700081FF06C08081982F917199F780628083B1
:104A80004BA15CA16DA17EA1448B558B668B778B6E
:104A900054964D915C91559770E060E0BA015527AE
:104AA00044275A960D911C915B9730E020E0402BF3
:104AB000512B622B732B448F558F668F778F5C96AB
:104AC0008D919D910D90BC91A02D808F918FA28F83
:104AD000B38F81E0DF91CF911F910F91FF90EF9005
:104AE000DF90CF90089583E0C1CF82E0BFCFCF9316
:104AF000DF93EC01262F4C895D896E897F898E8139
:104B00009F8180960E943C13009759F02C813D8133
:104B10002F70332745E0220F331F4A95E1F7820FAC
:104B2000931FDF91CF910895CF93DF93EC0180968F
:104B30000E940A12882331F088819981DF91CF91F8
:104B40000C94621280E0DF91CF9108959F92AF9212
:104B5000BF92CF92DF92EF92FF920F931F93CF936A
:104B6000DF93CDB7DEB7A0970FB6F894DEBF0FBEC8
:104B7000CDBF19821A821B82DC0112962C9121FF73
:104B800012C08C01FC01448D558D668D778D4115C9
:104B900051056105710549F461E0C8010E9477255E
:104BA0007C01009749F480E067C0868197810E946C
:104BB00004248111F1CFF7CF0E945724B82E85EE3F
:104BC000F7018083D8011C9212961C9212971696B8
:104BD0008D919C910E949425882329F3F80193815B
:104BE000992309F449C080859185A285B3856681A2
:104BF00077819E012F5F3F4F69010097A105B105A5
:104C000009F04CC0C9010E94D324882361F2EE242C
:104C1000E394F12C95EEA92ED80113968C9113975D
:104C20008E1508F214966D917C916E197F09C6015C
:104C30000E94B624FC01892B09F4B5CF83858F30FF
:104C400009F0B1CF9081892F8F71E812ACCF8585A3
:104C50008B11A9CFA082D8011696ED91FC9180A16D
:104C6000816080A3BFEFEB1AFB0A96FFD5CFF80156
:104C7000868197810E949425A0960FB6F894DEBF96
:104C80000FBECDBFDF91CF911F910F91FF90EF909D
:104C9000DF90CF90BF90AF909F9008952CE1F601E8
:104CA00011922A95E9F720E1298321E02B83788767
:104CB0006F838D8F9E8FAF8FB8A3A9CFCF93DF93D4
:104CC000FC012081211104C081E0DF91CF91089582
:104CD000EC01828187FF28C061E0CF010E94772527
:104CE000FC01892B29F489818160898380E0EDCFE3
:104CF0008081853EC1F3888187738387888183FFA4
:104D000008C0888D998DAA8DBB8D848F958FA68FB5
:104D1000B78F8C8D9D8DAE8DBF8D938F828FB58B10
:104D2000A48B8A818F778A838E819F810E949425AC
:104D30008823C9F2C9CFCF93DF93EC010E945E268E
:104D400018821A82DF91CF910895FF920F931F93DB
:104D5000CF93DF93FC0124A5211107C081E0DF91EF
:104D6000CF911F910F91FF900895EC0186A587FFC9
:104D70008AC08F7786A7F12C10E000E08BA58F15F5
:104D800008F469C040E06F2DCE010E94A918FC0113
:104D9000892B09F473C08081803C61F1813C69F00A
:104DA000853809F06BC08CA5877390E09583848368
:104DB000A8A1B9A18C9181608C93408190E080E0A2
:104DC00000FB1795079517F9DF01A80FB91F2C9164
:104DD000020F111D8130910521F423E030E04538A8
:104DE00011F021E030E0820F931F8032910540F3F3
:104DF000F394C4CF81819EA596FF2BC082608183EE
:104E0000788969895A894B893C892D899E898F893E
:104E1000708761875287438734872587968787877E
:104E20008C8D9D8DAE8DBF8D848B958BA68BB78B16
:104E3000788569855A854B853C852D859E858F852E
:104E4000708F618F528F438F348F258F968F878F0E
:104E5000AFCF8D7FD4CF41E0BE016E5D7F4F88A183
:104E600099A10E945F18009749F0FC011383028307
:104E700088A199A10E946E12811170CF8DA58160C9
:104E80008DA780E06CCF80A191A10E946E1281114C
:104E900065CF9DA591609DA762CF4F925F926F9263
:104EA0007F928F929F92AF92BF92CF92DF92EF92BA
:104EB000FF920F931F93CF93DF9300D01F92CDB734
:104EC000DEB74C01DC019C968C919C9786FF5CC000
:104ED00090960D911C91F801E15EFD4F80819181CA
:104EE000A281B38189839A83AB83BC83C12CD12CEB
:104EF000760149815A816B817C819E012F5F3F4FF2
:104F0000C8010E94BF1687FD3BC0BFEFCB1ADB0A6A
:104F1000EB0AFB0A8111EDCFF801E25DFD4F8081C4
:104F2000875F04C0CC0CDD1CEE1CFF1C8A95D2F7F9
:104F3000D4019096ED91FC91E95DFD4F80819181C6
:104F4000A281B3818C0D9D1DAE1DBF1D0097A105D3
:104F5000B44000F180E00F900F900F900F90DF9120
:104F6000CF911F910F91FF90EF90DF90CF90BF9066
:104F7000AF909F908F907F906F905F904F9008952B
:104F8000C12CD12C7601C8CFF401C084D184E28435
:104F9000F384CECFC4010E945D1A8823D9F2D401D4
:104FA00090968D919C9191975896CD90DD90ED9033
:104FB000FC905B97B2E0CB1AD108E108F108FC0144
:104FC000E25DFD4F208104C0CC0CDD1CEE1CFF1CFB
:104FD0002A95D2F7895E9D4FFC0180819181A28143
:104FE000B381C80ED91EEA1EFB1E412C512C320182
:104FF00000E012E0D40190968D919C919197FC0174
:10500000E25DFD4F208141E050E060E070E004C0CF
:10501000440F551F661F771F2A95D2F74416550671
:1050200066067706C0F425E0B701A601440D551DBC
:10503000661D771D0E943C13009709F48BCFFC017D
:105040009801119221503040E1F73FEF431A530A83
:10505000630A730ACFCF9C962C919C9726FD62C061
:105060009E962C919E9720689E962C93FC01E95D5C
:10507000FD4F80819181A281B3819C01AD0160E0EF
:1050800070E080E090E0D4011896AC9018971996E3
:10509000BC9019971A96CC901A971B96DC901B9788
:1050A0001C96EC901C971D96FC901D971E960C91DB
:1050B0001E971F961C911F970E9444A618962C932A
:1050C000189719963C9319971A964C931A971B9612
:1050D0005C931B971C966C931C971D967C931D9755
:1050E0001E968C931E971F969C9380819181A2811E
:1050F000B3819C01AD0160E070E080E090E0F401DC
:10510000A088B188C288D388E488F5880689178981
:105110000E9444A6208B318B428B538B648B758B02
:10512000868B978BC4010E94A52615CFFC0184AD08
:1051300095AD009711F00C945E2686AD97AD009763
:1051400011F00C94A52608958F929F92AF92BF9272
:10515000EF920F931F93CF93DF9300D000D000D036
:105160001F92CDB7DEB79A838983DC019E969C910E
:105170009E9791FF63C0BA87A9875C968D909D909A
:10518000AD90BC905F9781149104A104B104A9F47F
:1051900010E0E985FA8583A5811708F466C041E02F
:1051A000612FCF010E94A918009709F447C0DC01C4
:1051B0002C912F772C931F5FECCFA985BA85909601
:1051C000ED91FC91919796FF4AC018962C911897F3
:1051D00019963C9119971A964C911A971B965C91C7
:1051E0001B971C966C911C971D967C911D971E9683
:1051F0008C911E971F969C91AFEF0E944DA6DF01E8
:10520000A25DBD4F0C91075F0E9429A629833A83B6
:105210004B835C836D837E838F83988709811A819A
:105220002B813C810F5F1F4F2F4F3F4FE12CB5016A
:10523000A401CF010E9432198111AACF80E02A96E1
:105240000FB6F894DEBF0FBECDBFDF91CF911F9197
:105250000F91EF90BF90AF909F908F900895B50100
:10526000A401CF010E94EE19E7CFE985FA8514A6C3
:1052700016A680A191A12A960FB6F894DEBF0FBEA4
:10528000CDBFDF91CF911F910F91EF90BF90AF9065
:105290009F908F900C946E12FC0184A581110CC01C
:1052A0008FE2DF011D928A95E9F780E484A771A35C
:1052B00060A381E086A7089580E00895CF93DF93EF
:1052C000EC010E94A5261CA61EA6DF91CF91089591
:1052D000CF93DF93EC0188A999A9009749F00E9428
:1052E0009B2619AA18AA1BAA1AAADF91CF91089582
:1052F0008AA99BA9009719F00E945E29F2CF81E04C
:10530000F0CF982F803290F0877F823279F09A33F5
:1053100069F0892F8F7B8C3349F082EC890F8230C2
:1053200028F081E09C3519F080E0089581E008952F
:10533000CF92DF92EF92FF921F93CF93DF93EA0118
:105340006901FB019F012F5F3F4F80818032E9F0AF
:10535000F983E883FD83EC839E2F8F2F7F01D70194
:105360001D917D011123D1F01F3289F0812F0E9400
:105370008129811146C017FD45C01E3221F010322F
:1053800011F0FD82EC82F701E7CFF901DBCF9E2F10
:105390008F2F21912032D9F32F32C9F3F601908358
:1053A0008183688179817B836A838C819D8150E0D0
:1053B00040E0EA81FB81E817F907B1F09F012F5F18
:1053C0003F4F3B832A8330812FE9230F2A3108F492
:1053D000305240FB5795479557F9430F511D40FBFD
:1053E0005795479557F9E5CF861B970B9F838E837B
:1053F000598748879C012150310981E02F3F3105B1
:1054000008F080E0DF91CF911F91FF90EF90DF9047
:10541000CF900895CF93DF9391E090932504882354
:10542000B9F0C091B800D091BA008091BC008A7BDD
:105430008093BC0060E084E10E94718660E085E1B9
:105440000E9471860E94700DD093BA00C093B8007C
:10545000DF91CF91089585ED8093BC0080919D08E8
:1054600090919E08A0919F08B091A0080796A11D59
:10547000B11D23E0B695A795979587952A95D1F705
:105480002091BC0024FD03C010929B080895409118
:105490009D0850919E0860919F087091A008452B2F
:1054A000462B472B69F30097A105B10541F02AE28D
:1054B0002A95F1F700C00197A109B109E1CF8091C8
:1054C0009C080C940A2A1F920F920FB60F92112477
:1054D0000BB60F922F933F934F935F936F937F93EE
:1054E0008F939F93AF93BF93EF93FF938091B900F6
:1054F000887F803609F44DC008F040C0883209F436
:10550000A9C028F5803109F49DC0C8F4882309F4A6
:10551000FBC0883009F496C0FF91EF91BF91AF9125
:105520009F918F917F916F915F914F913F912F91BB
:105530000F900BBE0F900FBE0F901F9018958831E3
:1055400009F488C0803241F78093990814C08034F0
:1055500009F49DC040F48033B9F38833E9F68093B1
:10556000990885ECB0C0803509F485C0883509F408
:1055700096C0883489F60E942B2ACECF883909F448
:105580008CC038F5883729F050F4883611F0803710
:1055900019F683E080939B0810926C0457C08838FA
:1055A00009F47BC0803919F0803809F0B5CF8091BB
:1055B0006C04803208F071C0E0916C0481E08E0FC1
:1055C00080936C048091BB00F0E0E45BFB4F808330
:1055D0003DC0803B39F0E0F4803A09F479C0883A64
:1055E00009F09ACF84E080939B08109249041092AE
:1055F0004804E0914604F0914704199580914804CD
:1056000081110FC081E0809348041092260409C0E4
:10561000803C09F4A6CF883C09F4A3CF883B09F06D
:105620007BCFE091490481E08E0F80934904F0E044
:10563000EA5DFB4F80818093BB009091490480918B
:10564000480429C0809176088093BB0085EC809344
:10565000BC0062CF9091980880919708981758F5F0
:10566000E091980881E08E0F80939808F0E0E95867
:10567000F74F8081E9CFE091980881E08E0F809309
:1056800098088091BB00F0E0E958F74F8083909133
:105690009808809197089817C8F285E8D8CFE091CC
:1056A000980881E08E0F809398088091BB00F0E00D
:1056B000E958F74F808380919A0881115CCF81E08F
:1056C0008093750884EA8093BC0010929B0824CFD5
:1056D00085EC8093BC0010929B0880916C04803212
:1056E00030F4E0916C04F0E0E45BFB4F10826091D9
:1056F0006C0470E0E0914A04F0914B048CE494E077
:10570000199510926C0408CF1092990834CF8093A9
:105710000B0161BB70930801000000000000000055
:105720000000000086B1089580930B0161BB709367
:10573000080148B90000000000000000000000005F
:1057400000000000E2E0F1E080818F7D80830000B6
:105750000000000000000000000000000000000049
:105760000000000000000000000000000000808138
:105770008062808300000000000000000000000044
:105780000000000000000000000000000000000019
:10579000000000000895E2E0F1E0808180628083F3
:1057A0008081877B80830895E2E0F1E080818066DC
:1057B00080838081877F80830895FC0120E83327E0
:1057C0004FE35091000154FF03C04A95D1F716C032
:1057D00048E04A95F1F75091000154FD322B26958F
:1057E00029F431936A9551F020E833274FE3509123
:1057F000000154FDE5CF4A95D1F700C0862F90E017
:10580000089520910101322F30612F7EFC0150E874
:10581000419130930101742F752359F073E07A950B
:10582000F1F700000000209301017AE07A95F1F78A
:1058300005C07EE07A95F1F72093010100005695AE
:1058400021F073E07A95F1F7E4CF6A9521F000003A
:1058500000000000DCCF72E07A95F1F70000309391
:10586000010175E07A95F1F7000000002093010135
:105870000895CF93DF931F92CDB7DEB78FEF898363
:10588000F89461E0CE0101960E94012C789464E6C0
:1058900070E080E090E00E94F00F0F90DF91CF91D8
:1058A0000895FC0190E080E028E030E040E860E00E
:1058B00087FD65E8880F903221F05081542309F06C
:1058C0008160862746952150310989F79F5F31967F
:1058D000913251F70895CF93DF9300D000D000D0DC
:1058E0001F921F92CDB7DEB7AC018BE0EBE0F2E088
:1058F000DE01119601900D928A95E1F720E230E0E9
:1059000090E0FE013196BE01645F7F4FDA01A22371
:10591000B323AB2B11F080819827220F331F3196D0
:10592000E617F70799F79A01292BC9012B960FB6AD
:10593000F894DEBF0FBECDBFDF91CF9108952FEF5A
:1059400020BB11BAA7E0B1E02C93E8E0F1E01082AF
:1059500081BB90830000E2E0F1E080818F7D808355
:105960000000000000000000000080818062808351
:105970000000000010BA1C920895E2E0F1E080817E
:105980008F7B808300000000000000000000209159
:1059900006018FB19081906490830000922F08954A
:1059A0000F931F93CF93DF932FEF20BB11BAA7E084
:1059B000B1E02C93E8E0F1E010828C01222733273C
:1059C000C2E0D1E0488140664883419A0000409A95
:1059D00001BB012F112700830000419861BB672F95
:1059E000772760830000000040980000000000005E
:1059F000000000000000000000000000000010BADD
:105A00001C92DF91CF911F910F9108950E94D02C8D
:105A100080EF90E00E949F2C64E670E080E090E0D0
:105A20000C94F00FCF92DF92EF92FF92C12CD12C09
:105A300076018091780490917904A0917A04B091D4
:105A40007B0424E1880F991FAA1FBB1F2A95D1F759
:105A5000C816D906EA06FB0668F4C701B601905FCE
:105A60000E94D02C8FEF90E00E949F2C82E0E80EE5
:105A7000F11CDFCFFF90EF90DF90CF900895CF9291
:105A8000DF92EF92FF926B017C0160E070E081E0B9
:105A900098E00E94D02CC7010E949F2CC601FF9065
:105AA000EF90DF90CF900C949F2CDF92EF92FF92BB
:105AB0000F931F93CF93DF93CDB7DEB768970FB6E1
:105AC000F894DEBF0FBECDBFD82E88E0E6E1F2E04D
:105AD000DE01119601900D928A95E1F788E0EEE1E2
